:040000002EEF03F0EC
:060008004D8270EF11F0C3
:100018004D80D8CF42F0E8CF43F0E0CF44F0D9CFBD
:1000280045F0DACF46F0F3CF47F0F4CF48F0F6CFFB
:1000380049F0F7CF4AF0F8CF4BF0F5CF4CF0F2A4E7
:10004800A7D0F2940C0ED76E000ED66E0E84000167
:100058008E51D8A48E071750D8A417061750D8A4C5
:1000680002D0010E886F8651D8A486078C51D8A477
:100078008C079951D8A499078B51D8A48B0797510D
:10008800D8A497071650D8A41606842B042A04B0BF
:1000980002D0010E986F0A0E3B6E0450D7EC21F087
:1000A8000009D8B40E88550E00016819D8A411D0DB
:1000B80076513F6E7751406E764B772B3F50785D87
:1000C80040507959D8B00BD01050D8B408D0010E90
:1000D80005D0000E776F000E766F000E136E000EBF
:1000E800C56F070EC56501D045D0C551080D000E76
:1000F800F324D96E010EF420DA6E440EDE18D8A46B
:1001080037D0C551080D070EF324D96E010EF4201F
:10011800DA6EDF50D8B42CD0C551080D070EF32481
:10012800D96E010EF420DA6EDF06C551080D070EF0
:10013800F324D96E010EF420DA6EDF50D8A418D05B
:10014800C5C03FF0010E406E3F2A02D0D89040361D
:100158003F2EFCD74050FF0A2B160001C551080D51
:10016800050EF324D96E010EF420DA6E000EDF6E50
:10017800C52BB7D795A10CD02550D8B407D095AFCB
:1001880004D0959F550E686F03D0958F24C068F0F2
:100198009EA283D09E9200019051D8A407D07E5190
:1001A8007F11D8B403D07E07D8A07F071850D8A4F1
:1001B80036D002C003F001C002F082500F0B016E6E
:1001C80001500F0A0F0B016E000EC56F070EC565B3
:1001D80001D025D0C5C03FF0010E406E3F2A02D0A5
:1001E800D89040363F2EFCD740500001BF6F0350D7
:1001F800BF153F6E0250BF153F18D8A40ED002504D
:10020800BF153F6E0150BF153F18D8A406D0BF5187
:10021800FF0ABB170350BF15BB13C52BD7D7182A26
:10022800070E1818D8A402D0000E186E2B502918E3
:10023800C56FC5C03FF0D8903F32010E3F168A50B7
:100248003F18FE0B3F188A6EC5C03FF0010E3F16DF
:100258003F468A503F18FD0B3F188A6EC5C03FF0D5
:10026800D8903F32D8903F32D8903F32010E3F1697
:100278003F3A8A503F18EF0B3F188A6EC5C03FF0CF
:10028800D8903F32D8903F32010E3F163F3A3F4652
:100298008A503F18DF0B3F188A6E9EB09DA0C2D1CE
:1002A8009E9015C0CFFF14C0CEFF062A00019A51B8
:1002B800D8A4BBD0320E3B6E0650D7EC21F0000913
:1002C800D8A405D0010E0001856F010E076E00014C
:1002D8006951020DBC0EF324F66E7C0EF420F76E05
:1002E8000900F5CFC3F00A00F5CFC4F06A51020D3A
:1002F800BC0EF324F66E7C0EF420F76E0900F5CFE1
:10030800C1F00A00F5CFC2F00F50D8A40FD0400EAC
:10031800C11934E1C205D8A431D0C351C411D8A43D
:100328002DD0400EC26F010EC16F28D00F04D8A483
:1003380025D0400EC11912E1C205D8A40FD0C3516F
:10034800C411D8B4EED7400EC31918E1C405D8A417
:1003580015D0010EC26F400EC16F0CD0400EC319EC
:100368000DE1C405D8A40AD0540EC11903E1C20591
:10037800D8B404D0010EC46F400EC36F6851020D8B
:10038800BC0EF324F66E7C0EF420F76E0800F5CF51
:10039800BCF06BB3BC896BB1BC878B9A05A00AD043
:1003A800FF0EC31BFF0EC41BFF0EC11BFF0EC21B9B
:1003B800FF0EBC1BBC5114EC21F00001C25114EC1F
:1003C80021F00001C15114EC21F00001C45114ECDA
:1003D80021F00001C35114EC21F08B8A00F000F0E9
:1003E80000F000F000F000F000F000F08B9A05A09B
:1003F80002D08C8E01D08C9E052A1150D8B414D00E
:100408001350D8B411D01104D8A408D0122A090E58
:10041800126001D007D0000E126E06D0020E11181D
:10042800D8A403D0899601D0898600019A05D8A45A
:10043800E1D0320E3B6E0650D7EC21F00009D8A46B
:1004480005D0010E0001856F010E076E060E2860AB
:1004580002D0282A2BD0000E286E0001B851D8A44B
:1004680023D0080E196002D0192A02D0000E196E86
:100478001950D8A41BD02504D8A409D01A50800A32
:10048800780FD8B002D01A2A11D0F80E0ED0020E6A
:100498002518D8A409D01A50800A870FD8A002D0EE
:1004A8001A0604D0080E01D0000E1A6E00016A5117
:1004B800070DEB0E3F6E790E406EF3503F26F45059
:1004C800402228503F26000E40223FC0F6FF40C081
:1004D800F7FF0800F5CF41F0D8904136D890413663
:1004E800D89041340709BD6F28501A24C06FC0BF87
:1004F80021D0C051800A790FD8B01CD06851070D9F
:10050800EB0E3F6E790E406EF3503F26F4504022BA
:10051800C0513F26000E40223FC0F6FF40C0F7FF03
:100528000800F5CF41F0D8904132D8904130060B01
:10053800F80901D0F80EBD176951070DEB0E3F6E93
:10054800790E406EF3503F26F450402228503F2643
:10055800000E40223FC0F6FF40C0F7FF0800F5CF6D
:1005680041F0D8904136D8904136D89041340709A7
:10057800BE6FC0BF1CD0C051800A790FD8B017D049
:100588006851070DEB0E3F6E790E406EF3503F2613
:10059800F4504022C0513F26000E40223FC0F6FFD3
:1005A80040C0F7FF0800F550070BF80901D0F80E16
:1005B800BE178B9ABD5114EC21F00001BE5114EC0A
:1005C80021F028C03FF0010E406E3F2A02D0D8909B
:1005D80040363F2EFCD740500001C56F000E8C6E90
:1005E8008B8A00F000F000F000F08B9A0001C551F2
:1005F8007F0B8C6E0750D8B415D02150D8B403D0D7
:10060800212E01D022861D50D8B40AD01D2E08D024
:10061800000E9B6F1EC095F0000E1D6E7F0E906F32
:10062800000E076E4CC0F5FF4BC0F8FF4AC0F7FF3D
:1006380049C0F6FF48C0F4FF47C0F3FF46C0DAFFE1
:1006480045C0D9FF44C0E0FF43C0E8FF42C0D8FF1F
:100658004D90100038EF21F019EF09F083510A0D81
:10066800B90EF324D96E020EF420DA6EDF50DA6F79
:10067800DA510101876F886B000183510A0DBA0EA8
:10068800F324D96E020EF420DA6E01018751881125
:10069800D8B433EF09F0050E00019019D8A433EF50
:1006A80009F0000E01018A6F000183510A0DB70E8F
:1006B800DA6F020EDB6F020EDA27000EDB23F3502F
:1006C800DA27F450DB2301018A510001DA25D96EBB
:1006D8000101000E0001DB21DA6E01018A519F0F32
:1006E800E16EE26ADFCFE7FF8A2B060E8A65DCD768
:1006F8009F0E0001C76F65EC09F033EF09F08351D5
:100708000A0DB90EF324D96E020EF420DA6EDF500A
:100718000101866F9BEF07F083510A0DBA0EF3248F
:10072800D96E020EF420DA6EDECF87F1DDCF88F1C4
:1007380083510A0DBC0EF324D96E020EF420DA6E32
:10074800DF500101896F87C1C6F088C1C7F089C130
:10075800C8F086C1C9F0B70E0001CA6F17EC18F0CF
:10076800C6C082F1C7C083F1C8C084F1C9C085F191
:1007780001018251831184118511D8B40CD082C132
:10078800CCF083C1CDF084C1CEF085C1CFF0B3ECFD
:100798001DF033EF09F086A35BD089C1C6F00001D4
:1007A80083510A0DBD0EF324D96E020EF420DA6EC1
:1007B800DECFC7F0DECFC8F0DECFC9F0DECFCAF09B
:1007C800B75169EC13F00001DA6FDA510101826F59
:1007D800836B846B856B8251831184118511D8A436
:1007E800CED787C1CCF088C1CDF089C1CEF0000149
:1007F80083510A0DBD0EF324D96E020EF420DA6E71
:10080800DECFCFF0DECFD0F0DECFD1F0DECFD2F02A
:10081800600E46EC1DF0CA0E0101871903E1240E93
:100828008819D8A433EF09F00001B851D8A408D02A
:100838009A51D8A402D0010E01D0000E956F04D0B1
:10084800B805D8B4F8D7F9D795C01EF033EF09F03A
:1008580087C1CCF088C1CDF089C1CEF0000E00016F
:10086800CF6F000ED06F000ED16F000ED26F600EEA
:1008780046EC1DF087C17CF088C17DF089C18FF0FE
:100888000A0E00018BD17C517D11D8A40BD0000E2B
:10089800CC6F000ECD6F010ECE6F060ECF6FB3EC8E
:1008A8001DF034D3010186A90CD0000E0001CC6FD5
:1008B800000ECD6F030ECE6F050ECF6FB3EC1DF09B
:1008C80025D386B13FD1120E0001CC6F000ECD6F3B
:1008D800070ECE6F060ECF6FB3EC1DF017D3000EC8
:1008E80001018A6F000183510A0DB70EDA6F020EFB
:1008F800DB6F030EDA27000EDB23F350DA27F45000
:10090800DB2301018A510001DA25D96E0101000EAD
:100918000001DB21DA6E01018A519F0FE16EE26A64
:10092800DFCFE7FF8A2B060E8A65DCD79F0E000112
:10093800C76F65EC09F024D1000E01018A6F000130
:1009480083510A0DB70EDA6F020EDB6F030EDA273A
:10095800000EDB23F350DA27F450DB2301018A5120
:100968000001DA25D96E0101000E0001DB21DA6EE3
:100978008F51070DF90EDD6FFF0EDE6F400EDF6F32
:10098800010EE06FDD51DF27DE51E023F350DF2752
:10099800F450E02301018A510001DF25E16E0101D5
:1009A800000E0001E021E26EDE50E618D8B436D021
:1009B80083510A0DB70EDA6F020EDB6F030EDA27CA
:1009C800000EDB23F350DA27F450DB2301018A51B0
:1009D8000001DA25D96E0101000E0001DB21DA6E73
:1009E8008F51070DF90EDC6FFF0EDD6F400EDE6FC5
:1009F800010EDF6FDC51DE27DD51DF23F350DE27E8
:100A0800F450DF2301018A510001DE25E16E010166
:100A1800000E0001DF21E26EDFCFE7FF01018A2B24
:100A2800040E8A658CD7ACD0000E01018A6F0001D4
:100A380083510A0DB70EDA6F020EDB6F030EDA2749
:100A4800000EDB23F350DA27F450DB2301018A512F
:100A58000001DA25D96E0101000E0001DB21DA6EF2
:100A68008F51DD6FDE6BD890DD37DE37D890DD37FC
:100A7800DE37D890DD37DE37F80EDF6FFF0EE06F18
:100A8800000EE16F010EE26FDF51E127E051E22332
:100A9800DD51E127DE51E22301018A510001E12500
:100AA800E16E0101000E0001E221E26EDE50E6185F
:100AB800D8B440D083510A0DB70EDA6F020EDB6F3F
:100AC800030EDA27000EDB23F350DA27F450DB237A
:100AD80001018A510001DA25D96E0101000E0001D9
:100AE800DB21DA6E8F51DC6FDD6BD890DC37DD37B8
:100AF800D890DC37DD37D890DC37DD37F80EDE6F7D
:100B0800FF0EDF6F000EE06F010EE16FDE51E02790
:100B1800DF51E123DC51E027DD51E12301018A5156
:100B28000001E025E16E0101000E0001E121E26E05
:100B3800DFCFE7FF01018A2B040E8A6578D7EFEC37
:100B48001EF01ED07CC0DAF07DC0DBF00001DB5166
:100B5800600AD8B407D0010AD8B409D0030AD8B4B7
:100B68000BD00ED0DA51110AD8B4B9D609D0DA515F
:100B7800000AD8B4E1D604D0DA51000AD8B454D760
:100B8800000E0001CC6F000ECD6F000ECE6F200E50
:100B98001EEC1EF0BBD1000E8F6F000E8E6F5FD360
:100BA80083510A0DBA0EF324D96E020EF420DA6EC0
:100BB800DECF87F1DDCF88F183510A0DBC0EF32417
:100BC800D96E020EF420DA6EDF500101896F87C1F9
:100BD800C6F088C1C7F089C1C8F086C1C9F0B70E90
:100BE8000001CA6F17EC18F0C6C082F1C7C083F1C4
:100BF800C8C084F1C9C085F10101825183118411F3
:100C08008511D8A4BCD50001B751070D040EF326F1
:100C1800000EF422AC0EF324F66E7E0EF420F76E6E
:100C28000800F5CF80F1B751070D020EF326000E2C
:100C3800F422AC0EF324F66E7E0EF420F76E080054
:100C4800F5CF81F1040E0101806526D08951D8A421
:100C580013D08151D8B410D087C1CCF088C1CDF061
:100C680089C1CEF081510001CF6FD06BD16BD26BAF
:100C7800420E46EC1DF0F3D287C1CCF088C1CDF00E
:100C880089C1CEF080510001CF6FD06BD16BD26B90
:100C9800400E46EC1DF0EED58951D8A40BD08151F9
:100CA800D8B408D0010E806F8151826F836B846B3A
:100CB800856B0ED089C1C6F00001B75141EC15F023
:100CC800C6C082F1C7C083F1C8C084F1C9C085F12C
:100CD80087C1CCF088C1CDF089C1CEF082C1CFF0F8
:100CE80083C1D0F084C1D1F085C1D2F0420E46EC68
:100CF8001DF0B5D27C517D11D8A40BD0000ECC6F5D
:100D0800000ECD6F010ECE6F060ECF6FB3EC1DF047
:100D1800FDD0010186A9CBD0000E0001CC6F000EDA
:100D2800CD6F030ECE6F050ECF6FB3EC1DF0EED076
:100D3800000E01018A6F00019A51D8A407D0F20E63
:100D480001018A25F66EF76A7F0E06D0D50E0101DD
:100D58008A25F66EF76A7F0EF722780E8A25D96EF5
:100D6800DA6A010EDA220800F5CFDFFF8A2B050EBA
:100D78008A65E1D7060E0001CC6F780ECD6F010EA3
:100D8800CE6F010E1EEC1EF0C1D0000E01018A6F5D
:100D980000019A51D8A407D0EC0E01018A25F66EFD
:100DA800F76A7F0E06D0CF0E01018A25F66EF76A24
:100DB8007F0EF722780E8A25D96EDA6A010EDA22BA
:100DC8000800F5CFDFFF8A2B050E8A65E1D7050EEF
:100DD8000001CC6F780ECD6F010ECE6F010E1EECA8
:100DE8001EF094D0000E01018A6F00019A51D8A418
:100DF80007D0F80E01018A25F66EF76A7F0E06D035
:100E0800DB0E01018A25F66EF76A7F0EF722780E4F
:100E18008A25D96EDA6A010EDA220800F5CFDFFFDB
:100E28008A2B050E8A65E1D7050E0001CC6F780E76
:100E3800CD6F010ECE6F010E1EEC1EF067D0070EAF
:100E4800CC6FA60ECD6FCE6B010E1EEC1EF05ED0E1
:100E5800070ECC6F9F0ECD6FCE6B010E1EEC1EF0F1
:100E680055D0070ECC6F8F51070D390EF324CD6F77
:100E7800010EF420CE6F010E1EEC1EF047D0070EB7
:100E8800CC6F8F51DA6FDB6BD890DA37DB37D890BD
:100E9800DA37DB37D890DA37DB37F80EDA25CD6F5B
:100EA800000EDB21CE6F010E1EEC1EF02FD07CC091
:100EB800DAF07DC0DBF00001DB51100AD8B40AD0AB
:100EC800700AD8B412D0010AD8B417D0030AD8B41B
:100ED80019D01CD0DA51080AD8B42AD7010AD8B4D4
:100EE80054D7030AD8B47ED711D0DA51100AD8B42F
:100EF800A6D7010AD8B4ACD709D0DA51000AD8B4B9
:100F0800B0D704D0DA51000AD8B4B9D7000E00011E
:100F18007D6F000E7C6F3FD6010ECC6F000ECD6F3B
:100F2800040ECE6F050ECF6FB3EC1DF098D186512D
:100F3800E00B0001DA6FDB6BDB51000AD8A4ECD7B9
:100F4800DA51000AD8B49FD4200AD8B490EF03F03D
:100F5800600AD8B425D6200AD8B4CCD6E00AD8B4CA
:100F6800D5D7DAD783510A0DBA0EF324D96E020EFB
:100F7800F420DA6EDF5001018A6F8A51D8B43BD071
:100F880000019D5101018A19D8B435D068D1050EE8
:100F9800906F65D1000E916F800E6F6EFF005FD16C
:100FA800F00E906F060E976F5AD19A51D8A40CD0B4
:100FB800F90EF66E7F0EF76E0800F550D00F696FC8
:100FC800FB0EF66E7F0E0BD0DC0EF66E7F0EF76E04
:100FD8000800F550D00F696FDE0EF66E7F0EF76EC3
:100FE8000800F550D00F6A6F550E686F000E256E19
:100FF800040E8C6F34D1000183510A0DB90EF3240D
:10100800D96E020EF420DA6EDF50010AD8B4BFD7C9
:10101800030AD8B424D1820AD8B421D1010AD8B499
:10102800B9D7030AD8B41BD1720AD8B4B9D7020AFF
:10103800D8B4BBD714D183510A0DB80EF324D96E96
:10104800020EF420DA6E650EDE18D8A408D183519A
:101058000A0DB90EF324D96E020EF420DA6EDF50B1
:101068000101866F84D0020E00019B6F000E9C6FF9
:1010780083510A0DBA0EF324D96E020EF420DA6EEB
:10108800DF509D6F83510A0DBD0EF324D96E020EF9
:10109800F420DA6EDF506C6F83510A0DBB0EF32417
:1010A800D96E020EF420DA6EDF506D6F83510A0D8F
:1010B800BC0EF324D96E020EF420DA6EDF506E6F88
:1010C8009A51D8A403D0550E6C6F04D0210E6C61D0
:1010D80001D0F9D7210E6D6102D0850E6D6F210EFA
:1010E8006E61BDD0850E2ED0030E00019B6F000EE1
:1010F8009E6F550E6C6F0F0E9D6521D07E0E9D6103
:101108001ED0F10E9D25C66FC76BFF0EC723000EBC
:10111800C96F0A0EC86FE5EC1FF0C651300F6D6F2E
:10112800F10E9D25CE6FCF6BFF0ECF23000ED16F32
:101138000A0ED06F62EC20F0CE51300F03D0550E5E
:101148006D6F550E6E6F8BD0040E00010CD0A50E7E
:101158000001916F020E9B19D8A404D07F0E906FE6
:1011680094C09DF0000E9B6F000E9C6F78D0865146
:10117800110AD8B478D7030AD8B4B6D7010AD8B4B4
:10118800E6D7070AD8B4E0D76AD083510A0DB80E5B
:10119800F324D96E020EF420DA6EDF500101816F5C
:1011A800000183510A0DB90EF324D96E020EF42002
:1011B800DA6EDF500101866F0B0E8119D8A44FD06B
:1011C8008651D8A44CD0000E8A6F000183510A0DB5
:1011D800B70EDA6F020EDB6F020EDA27000EDB2382
:1011E800F350DA27F450DB2301018A510001DA2594
:1011F800D96E0101000E0001DB21DA6E01018A516E
:10120800600FE16EE26ADFCFE7FF8A2B070E8A657F
:10121800DCD7000167AF02D06B8301D06B9367A165
:1012280002D06B811CD06B911AD083510A0DB70E76
:10123800F324D96E020EF420DA6EDF50000AD8B417
:1012480091D6800AD8B432EF03F0200AD8B49DD7DB
:10125800600AD8B483EF03F0300AD8B4ECD61D0E78
:1012680000018319D8A403D0000E836F01D0832B0B
:101278009207F29E0CC08AF192C080F1F28E8351DF
:1012880001018A5DD8B002D01E0E8A271E0E000109
:10129800C66F01018051ABEC21F0DA6FDB6B835133
:1012A8008AC1DCF0DD6BDC5F000EDD5BDA51DC1936
:1012B80004E1DB51DD19D8B412005A0E916FFF001A
:1012C8001200000ECD6F000ECE6F000ECF6F000E15
:1012D800CC6F000ECB6FC751D96EDA6ADF50D16F71
:1012E800D15193EC21F00009D8B425D1020ED119BF
:1012F800D8A405D0C751D96EDA6A030E04D0C751F5
:10130800D96EDA6A010ED926DF50D26FD229D8A455
:1013180053D0000ED26FD251080D000EF324D96EAF
:10132800010EF420DA6ED151DE18D8A440D0D25183
:10133800080D060EF324D96E010EF420DA6EDE04D1
:10134800D8A435D0C751D96EDA6A020ED926DF5033
:10135800FF0AC86FD251080D070EF324D96E010E8B
:10136800F420DA6EC851DF16D251080D070EF324A7
:10137800D96E010EF420DA6EDF50D8A418D0D2C08E
:10138800C8F0010EC96FC82B02D0D890C937C82F32
:10139800FCD70001C951FF0A2B16D251080D050EC2
:1013A800F324D96E010EF420DA6E000EDF6ED22B14
:1013B800070ED265B0D71200000ED26FD251080DB9
:1013C800000EF324D96E010EF420DA6EC751E16ED7
:1013D800E26ADE50E618D8A4A9D0D251080D010E51
:1013E800F324D96E010EF420DA6EC751E16EE26A79
:1013F800010EE126DE50E618D8A498D0D251080D87
:10140800030EF324D96E010EF420DA6EC751E16E93
:10141800E26A030EE126DE50E618D8A487D0D2513E
:10142800080D020EF324D96E010EF420DA6EDF5097
:10143800C86FC751D96EDA6A020ED926DF50C815AF
:101448000009D8B473D0D251080D040EF324D96E14
:10145800010EF420DA6EDF50C86FC751D96EDA6A10
:10146800040ED926DF50FF0AC815C96F0F0EC91719
:10147800D8A45CD0D251080D060EF324D96E010E03
:10148800F420DA6EDE04D8A451D0C751D96EDA6AD6
:10149800050ED926DFA028D0D2C0C8F0010EC96F2A
:1014A800C82B02D0D890C937C82FFCD70001C95122
:1014B8002B12C751D96EDA6A020ED926DF50C86FCF
:1014C800D251080D070EF324D96E010EF420DA6EFE
:1014D800C851DF12D251080D050EF324D96E010E42
:1014E800F420DA6E010E21D0D251080D070EF32434
:1014F800D96E010EF420DA6E000EDF6ED2C0C8F08D
:10150800010EC96FC82B02D0D890C937C82FFCD795
:101518000001C951FF0A2B16D251080D050EF324FC
:10152800D96E010EF420DA6E000EDF6ED22B070E94
:10153800D26544D71200400ED119D8A475D0C7512E
:10154800D96EDA6A020ED9262A50DE18D8A41200FB
:101558009B51D8A412009D90C751D96EDA6A040E27
:10156800D926DF50CE6FC751D96EDA6A050ED92653
:10157800DF50CF6F000ED26F690ED225F66EF76A74
:101588007F0EF7220800F550CE6303D0D2C069F071
:1015980019D0CE51D8B404D0200ECE19D8A403D077
:1015A800550E696F0FD0690ED225F66EF76A7F0E59
:1015B800F7220800F5500009D8B404D0D22B5E0EEB
:1015C800D265DAD7000ED26F690ED225F66EF76AA9
:1015D8007F0EF7220800F550CF6303D0D2C06AF01F
:1015E80019D0690ED225F66EF76A7F0EF722080029
:1015F800F5500009D8B407D0CF51D8B404D0200E84
:10160800CF19D8A403D0550E6A6F04D0D22B5E0E22
:10161800D265DAD7550E6A19D8A404D0250E696F99
:10162800250E6A6F9D801200420ED119D8A441D0B0
:10163800C751D96EDA6A020ED9262A50DE18D8A404
:1016480038D09B51D8A435D09D90C751D96EDA6A4D
:10165800050ED926DF50D8A403D0C86BC82B02D0FA
:101668000001C86BC8A102D0000E07D0C751D96EBF
:10167800DA6A010ED926DF50030B686F020E68651F
:1016880002D0000E686F6851D8A402D0000E0AD0AC
:10169800C751D96EDA6A010ED926DF50C86FC8392A
:1016A8000F0B030B256E550E682768C024F09D802C
:1016B8001200410ED119D8B404D0490ED119D8A4BA
:1016C800BCD1C751D96EDA6A010ED926DF50D06F66
:1016D800410ED119D8A4E4D0000ED26FD251080D12
:1016E800000EF324D96E010EF420DA6EC751E16EB4
:1016F800E26ADE50E618D8A4CED0D251080D020E08
:10170800F324D96E010EF420DA6EC751E16EE26A55
:10171800020EE126DE50E618D8A4BDD0D251080D3D
:10172800060EF324D96E010EF420DA6EDE04D8A476
:10173800B2D0D251080D010EF324D96E010EF42057
:10174800DA6EDF50C86FC751D96EDA6A010ED92632
:10175800DF50C815C96F030EC917D8A40BD0D251D2
:10176800080D010EF324D96E010EF420DA6EDF5055
:10177800D8A464D0D251080D030EF324D96E010EFB
:10178800F420DA6EC751E16EE26A030EE126DE50FC
:10179800E618D8B413D0C751D96EDA6A030ED92621
:1017A800DE28D8B40BD0D251080D030EF324D96E1D
:1017B800010EF420DA6EDF50D8A440D0D251080DC3
:1017C800040EF324D96E010EF420DA6EDF50C86FD0
:1017D800C751D96EDA6A040ED926DF50C815000938
:1017E800D8A40BD0D251080D040EF324D96E010EE3
:1017F800F420DA6EDF50D8A421D02750D8A437D0EF
:10180800C751D96EDA6A050ED926DFA017D0D2C023
:10181800C8F0010EC96FC82B02D0D890C937C82F9D
:10182800FCD70001C9512B12D251080D050EF32423
:10183800D96E010EF420DA6E010E17D0D2C0C8F0AE
:10184800010EC96FC82B02D0D890C937C82FFCD752
:101858000001C951FF0A2B16D251080D050EF324B9
:10186800D96E010EF420DA6E000EDF6E14D0C75167
:10187800D96EDA6A010ED926DF50C86FC83B0F0E41
:10188800C817D8A4DBD7C751D96EDA6A050ED9268E
:10189800DFB0BDD7D3D7D22B070ED2651FD7120022
:1018A800490ED119D8A41200D0C0C8F00F0EC8171D
:1018B800D8B41200000ED26FD251080D000EF324D6
:1018C800D96E010EF420DA6EC751E16EE26ADE507D
:1018D800E618D8A4ADD0D251080D020EF324D96E63
:1018E800010EF420DA6EC751E16EE26A020EE126BB
:1018F800DE50E618D8A49CD0D251080D060EF32469
:10190800D96E010EF420DA6EDE04D8A491D0D2513B
:10191800080D010EF324D96E010EF420DA6EDF50A3
:10192800C86FC751D96EDA6A010ED926DF50C815BB
:10193800C96F0F0EC917D8B44ED0D251080D030E77
:10194800F324D96E010EF420DA6EC751E16EE26A13
:10195800030EE126DE50E618D8B408D0C751D96E78
:10196800DA6A030ED926DE28D8A435D0D251080D5C
:10197800040EF324D96E010EF420DA6EDF50C86F1E
:10198800C751D96EDA6A040ED926DF50C815000986
:10199800D8B421D02750D8A437D0C751D96EDA6A25
:1019A800050ED926DFA017D0D2C0C8F0010EC96F26
:1019B800C82B02D0D890C937C82FFCD70001C9510D
:1019C8002B12D251080D050EF324D96E010EF42006
:1019D800DA6E010E17D0D2C0C8F0010EC96FC82B3D
:1019E80002D0D890C937C82FFCD70001C951FF0AC7
:1019F8002B16D251080D050EF324D96E010EF420D2
:101A0800DA6E000EDF6E14D0C751D96EDA6A010E95
:101A1800D926DF50C86FC83B0F0EC817D8A4DBD72C
:101A2800C751D96EDA6A050ED926DFB0BDD7D3D72C
:101A3800D22B070ED26540D71200440ED119D8A474
:101A4800BED0000ED26FD251080D000EF324D96E0D
:101A5800010EF420DA6EC751E16EE26ADE50E61834
:101A6800D8A4A8D0D251080D010EF324D96E010EC6
:101A7800F420DA6EDF50C86FC751D96EDA6A010EEA
:101A8800D926DF50C815C96F030EC917D8A40BD0C3
:101A9800D251080D010EF324D96E010EF420DA6E2E
:101AA800DF50D8A487D0D251080D030EF324D96E85
:101AB800010EF420DA6EC751E16EE26A030EE126E8
:101AC800DE50E618D8B413D0C751D96EDA6A030EBF
:101AD800D926DE28D8B40BD0D251080D030EF32432
:101AE800D96E010EF420DA6EDF50D8A463D0D2513B
:101AF800080D020EF324D96E010EF420DA6EC751D8
:101B0800E16EE26A020EE126DE50E618D8A452D051
:101B1800D251080D040EF324D96E010EF420DA6EAA
:101B2800DF50C86FC751D96EDA6A040ED926DF5064
:101B3800C8150009D8A40BD0D251080D040EF324FF
:101B4800D96E010EF420DA6EDF50D8A433D0D2510A
:101B5800080D060EF324D96E010EF420DA6EDE04A9
:101B6800D8A428D0C751D96EDA6A050ED926DFA0C5
:101B780021D0D2C0C8F0010EC96FC82B02D0D890AE
:101B8800C937C82FFCD70001C9512B12D251080DF3
:101B9800070EF324D96E010EF420DA6E140EDF6EF0
:101BA800D251080D050EF324D96E010EF420DA6E19
:101BB800010EDF6ED22B070ED26545D712000E0E2E
:101BC800D119D8B408D0140ED119D8B404D0150E30
:101BD800D119D8A477D0C751D96EDA6A010ED9269F
:101BE800DF50D06F55D0C751D96EDA6A050ED926A5
:101BF800DF50D8B403D06B838D8012006B938D9027
:101C08001200C751D96EDA6A050ED926DF50D8B44A
:101C180002D06B8112006B911200C751D96EDA6A3B
:101C2800050ED926DF50826F1200C751D96EDA6AC5
:101C3800050ED926DF50816F1200C751D96EDA6AB6
:101C4800050ED926DF50806F1200D051880AD8B40B
:101C5800F4D7070AD8B4E9D71F0AD8A41200DDD7E9
:101C6800C751D96EDA6A050ED926DF50D8B402D02A
:101C78008D8212008D921200C751D96EDA6A050E54
:101C8800D926DF50D8B402D08D8412008D9412006A
:101C9800D051100AD8B4E4D7910AD8B4B2D7070AF9
:101CA800D8B4A1D70E0AD8B4D0D7030AD8B4A9D7C4
:101CB800040AD8B4CAD71F0AD8B4C7D7310AD8A4D7
:101CC8001200DAD7450ED119D8A446D0C751D96E1B
:101CD800DA6A030ED926DF50C86FC751D96EDA6A9F
:101CE800010ED926DF50C96FC851CB6FC9C0CCF0DF
:101CF8000D0ECB1903E1250ECC19D8A41200C7513B
:101D0800D96EDA6A050ED926DF50C86FC8390F0BAD
:101D1800030B116EC751D96EDA6A050ED926DF504A
:101D2800C86F0F0EC817C851780DF3CF78F0F4CFED
:101D380079F0010E106EC751D96EDA6A050ED926F0
:101D4800DF50C86F060EC96FD890C833C92FFCD7AB
:101D5800C851030B0F6E1200000ED26FD251080D3E
:101D6800000EF324D96E010EF420DA6EC751E16E2D
:101D7800E26ADE50E618D8A49BD0D251080D010EB5
:101D8800F324D96E010EF420DA6EC751E16EE26ACF
:101D9800010EE126DE50E618D8B408D0C751D96E36
:101DA800DA6A010ED926DF50D8A482D0D251080DA4
:101DB800030EF324D96E010EF420DA6EC751E16EDA
:101DC800E26A030EE126DE50E618D8A471D0D2519B
:101DD800080D020EF324D96E010EF420DA6EC751F5
:101DE800E16EE26A020EE126DE50E618D8A460D061
:101DF800D251080D040EF324D96E010EF420DA6EC8
:101E0800DF50C86FC751D96EDA6A040ED926DF5081
:101E1800C8150009D8A40BD0D251080D040EF3241C
:101E2800D96E010EF420DA6EDF50D8A441D0D25119
:101E3800080D060EF324D96E010EF420DA6EDE04C6
:101E4800D8A436D0C751D96EDA6A050ED926DFA0D4
:101E580017D0D2C0C8F0010EC96FC82B02D0D890D5
:101E6800C937C82FFCD70001C9512B12D251080D10
:101E7800050EF324D96E010EF420DA6E010E17D088
:101E8800D2C0C8F0010EC96FC82B02D0D890C9378C
:101E9800C82FFCD70001C951FF0A2B16D251080DD3
:101EA800050EF324D96E010EF420DA6E000EDF6EF3
:101EB800D22B070ED26552D712005A0E0001911983
:101EC800D8B4BA89550E9119D8A402D0BA8908D0C5
:101ED800D0B2D0B605D0BA81610E7B6F000E7A6F92
:101EE800D082D080AA0E916F0400000EC26E000E40
:101EF800C16E000E916E000E0F01556F000E546FEB
:101F0800800E566F000E5D6F000E5C6F9268000EBB
:101F18000001E96FB70EE925D96EDA6A020EDA22F6
:101F28008050010BDF6EC10EE925D96EDA6A020E08
:101F3800DA228050020BDF6E000EC76F0A0EC66FE2
:101F4800EDEC20F0E92B090EE965E4D7B70EC66F72
:101F5800020EC76FC10EC86F020EC96F9AEC20F04F
:101F6800030BE96FE9B102D0000E03D0E9B3FCD747
:101F7800010E9A6F79EC21F0000EC76F000EC66F44
:101F880022EC22F000019D6F010E2A6E6F0E9D61FA
:101F980003D09D51D8A402D0100E9D6F0400000EEE
:101FA8000001906F9DC07EF07F6B9DC094F07EC055
:101FB800C6F07FC0C7F0000EC96F140EC86FECECF6
:101FC80021F0E80EC625CC6F030EC721CD6F000E99
:101FD800CF6F030ECE6FC4EC20F0580ECC257E6F69
:101FE800020ECD217F6F100E9D19D8A404D0030EC8
:101FF8007F6FA50E7E6F8DEC1BF0000EF26ED08EFB
:1020080019EC22F0C2EC21F004000FEC22F0F28E61
:10201800F28C01D0040000017E517F11D8A4FAD7B8
:10202800010E896F010EE2EC18F0000E0001C76F77
:10203800640EC66FEDEC20F0040E8C6FFFEC21F0FF
:102048007F0E0001906F000EE86F320E176E000EC3
:10205800886F0400000E00018D6FEFEC1EF0040085
:1020680000019251D8A430EC03F000018551D8B496
:102078001AD087EC1EF02050EFEC1AF000019B51AB
:10208800D8B403D026EC1CF00CD0F00E9019D8B4BC
:1020980006D01F04D8A405D00A0E846502D097EC98
:1020A80019F0000E856F7C517D11D8B411D08E5176
:1020B800D8A40ED0000E7D6F000E7C6F000ECC6F82
:1020C800000ECD6F040ECE6F050ECF6FB3EC1DF072
:1020D80000018C51D8A40DD08751D8B40AD08651AC
:1020E800D8A407D09B51D8A404D0040E8C6FFFEC61
:1020F80021F000017A517B11D8B409D04AEC1FF0C5
:10210800000E0001BA6F000E7B6F000E7A6F8851C7
:10211800D8B405D0000E886F010E44EC1AF0550EA5
:102128009119D8A403D08651D8B403D0280E846559
:102138000DD0000E916F000E846F010EE2EC18F0C6
:102148000001BA89810E7B6F410E7A6F7F0E90195C
:10215800D8A420D0BB51B919E76F000EE96FE95137
:10216800070D450EF324D96E010EF420DA6EE9C08E
:10217800E4F0E7C0E5F0E42B02D0D890E533E42F93
:10218800FCD70001E551010BDF6EE92B070EE9656D
:10219800E6D765D7050E9019D8A461D7BB51B919F0
:1021A800E76F8D51E719D8B45AD7000EE96FE9C027
:1021B800E4F0E7C0E5F0E42B02D0D890E533E42F53
:1021C800FCD70001E551010BE66FE9C0E4F08DC0D2
:1021D800E5F0E42B02D0D890E533E42FFCD70001DA
:1021E800E551010BE619D8B46FD0E951070D450E3A
:1021F800F324D96E010EF420DA6EE6C0DFFFE95150
:10220800070D400EF324D96E010EF420DA6EDF506C
:10221800D8B45AD0000EE86F060EE86501D044D055
:10222800E951070D400EE46F010EE56FF350E42706
:10223800F450E523E851E425D96E000EE521DA6E65
:10224800E851A60FE16EE26ADFCFE7FFE82BE4D79B
:10225800E651D8B439D0A60ECC6F27EC20F034D094
:102268009B51D8A431D08B51D8B40CD0E951070D6B
:10227800430EF324D96E010EF420DA6E8A51DE186B
:10228800D8B404D0A60ECC6F27EC20F0020E0001C3
:102298008B6FE951070D430EF324D96E010EF4201C
:1022A800DA6EDF508A6F10D0E951070D400EF32423
:1022B800D96E010EF420DA6EDF50020AD8B4D0D7F6
:1022C800070AD8B4C5D7C7D70001E92B070EE965B7
:1022D8006ED7E7C08DF0C3D6E1CF2FF0E2CF30F054
:1022E800D9CF31F0DACF32F0F3CF33F0F4CF34F086
:1022F800000E0001846F6E500E0B366EC2D11E0E9A
:102308009219D8A407D01650D8A404D0BA89140EAC
:10231800166E71D00C500A0DB70EF324D96E020E4A
:10232800F420DA6E0F013151F00BDF6E0C500A0DFC
:10233800B80EF324D96E020EF420DA6E32CF2CF0E8
:10234800050E2D6ED8902C322D2EFCD731510F0B47
:10235800080DF3502C24DF6E0C500A0DB70EF32431
:10236800D96E020EF420DA6EC00EDE18D8A40DD095
:102378000C500A0DB80EF324D96E020EF420DA6E52
:1023880000019D51DE18D8A436D00F0135510F0B2E
:10239800396E360E376E0F0E386E000E3A6E1DD03F
:1023A8003A503724D96E000E3820DA6E0C500A0DD8
:1023B800B70E2C6E020E2D6E020E2C26000E2D224C
:1023C800F3502C26F4502D223A502C24E16E000EA6
:1023D8002D20E26EDFCFE7FF3A2A39503A5CD8A0C9
:1023E800DFD71D0E0C18D8A403D0000E0C6E01D038
:1023F8000C2A0001922B0F01309F779258D10D5073
:10240800D8B470D00B500A0D8C0EF324D96E010E7F
:10241800F420DA6EDF502C6ED8902C32D8902C3203
:10242800D8902C320B500A0D8B0EF324D96E010E66
:10243800F420DA6EDF50F00B2C240F01216F0B50C3
:102448000A0D8C0EF324D96E010EF420DA6EDF50DB
:102458002C6E050E2D6ED8902C362D2EFCD72C50B8
:10246800226F0B500A0D8B0EF324D96E010EF42047
:10247800DA6EDF500F0B396E39C025FF260E376E26
:102488000F0E386E000E3A6E1DD00B500A0D8B0ED3
:102498002C6E010E2D6E020E2C26000E2D22F350EE
:1024A8002C26F4502D223A502C24D96E000E2D20C3
:1024B800DA6E3A503724E16E000E3820E26EDFCF34
:1024C800E7FF3A2A39503A5CD8A0DFD70F012087B6
:1024D8000D061D0E0B18D8A403D0000E0B6E04D0E9
:1024E8000B2A02D0010E096E7794E1D01E0E9219C4
:1024F800D8A407D01650D8A404D0BA89140E166EE2
:1025080091D00C500A0DB70EF324D96E020EF420A8
:10251800DA6E6150F00BDF6E0C500A0DB80EF32422
:10252800D96E020EF420DA6E62CF2CF0050E2D6EF5
:10253800D8902C322D2EFCD761500F0B080DF3507C
:102548002C24DF6E0C500A0DB70EF324D96E020E40
:10255800F420DA6EE00EDE18D8A417D062CF2CF083
:10256800050E2D6ED8902C322D2EFCD76150080DFB
:10257800F3502C242E6E2E04356E080E356002D0D2
:10258800320E176E010E876F4DD00C500A0DB70E24
:10259800F324D96E020EF420DA6EA00EDE18D8A449
:1025A80041D00C500A0DB80EF324D96E020EF42057
:1025B800DA6E0B0EDE18D8A435D065500F0B396EC5
:1025C800660E376E0F0E386E000E3A6E1DD03A50FA
:1025D8003724D96E000E3820DA6E0C500A0DB70E6B
:1025E8002C6E020E2D6E020E2C26000E2D22F3509C
:1025F8002C26F4502D223A502C24E16E000E2D206A
:10260800E26EDFCFE7FF3A2A39503A5CD8A0DFD72D
:102618001D0E0C18D8A403D0000E0C6E01D00C2A85
:102628000001922B609E779042D0779C40D077969D
:102638003ED077983CD0779A71AC0AD01650D8A47F
:1026480007D0719C0F01309F0001BA89140E166ED5
:1026580071AE02D0719E609E71AA08D0550E911974
:10266800D8B404D0550E916F040E866F71B802D09D
:1026780071A61DD01650D8A41AD0BA89140E166E99
:1026880016D03650020AD8B4D6D7060AD8B4D1D74D
:10269800020AD8B4CCD70E0AD8B4B1D6020AD8B434
:1026A8002ED6060AD8B422D7020AD8B4BED734C068
:1026B800F4FF33C0F3FF32C0DAFF31C0D9FF30C0B6
:1026C800E2FF2FC0E1FF4D921100D56F0001D551F7
:1026D800070D040EF326000EF422AC0EF324F66E5A
:1026E8007E0EF420F76E0800F5CFD3F0C651D8B4AB
:1026F80005D0C605D303F3CFD1F099D1000ED16F21
:1027080096D1D551070D050EF326000EF422AC0E16
:10271800F324F66E7E0EF420F76E0900F5CFCBF0A9
:102728000900F5CFCCF0CBC0F6FFCCC0F7FFF86AB4
:102738000E0EF76403D00800F55005D0F6CFE1FF80
:10274800F7CFE2FFE7500001D46FC7C0CBF0C8C095
:10275800CCF0C9C0CDF0CAC0CEF0100E05D0D890CC
:10276800CE33CD33CC33CB33E82EF9D7CB51010B55
:10277800D26FC6C0CBF0FF0ECB27D4C0CCF0CB2B8A
:1027880002D0D890CC33CB2FFCD70001CC51010B11
:10279800D219D8B423D0D251D8B410D0C6C0CBF0F7
:1027A800FF0ECB27010ECC6FCB2B02D0D890CC37A5
:1027B800CB2FFCD70001CC51D41310D0C6C0CBF01E
:1027C800FF0ECB27010ECC6FCB2B02D0D890CC3785
:1027D800CB2FFCD70001CC51FF0AD417D551070DD8
:1027E800050EF326000EF422AC0EF324F66E7E0ED0
:1027F800F420F76E0900F5CFCBF00900F5CFCCF047
:10280800CBC0F6FFCCC0F7FFF86A0E0EF76404D011
:10281800D4C0F5FF0C0006D0F6CFE1FFF7CFE2FFFA
:10282800D4C0E7FF000E1200D551070D050EF326A0
:10283800000EF422AC0EF324F66E7E0EF420F76E32
:102848000900F5500900F510D8B4ECD7F90ECB6F94
:10285800FF0ECC6FD551070D050EF326000EF4229E
:10286800AC0EF324F66E7E0EF420F76E0900F5CF59
:10287800CDF00900F5CFCEF0C651070DF350CD27A6
:10288800F450CE23CB51CD27CC51CE23CDC0F6FF6B
:10289800CEC0F7FFF86A0E0EF76404D0C7C0F5FF84
:1028A8000C0001D049D0BED7D551070D050EF3262F
:1028B800000EF422AC0EF324F66E7E0EF420F76EB2
:1028C8000900F5500900F510D8B4ACD7F80ECB6F55
:1028D800FF0ECC6FC651CD6FCE6BD890CD37CE37AB
:1028E800D890CD37CE37D890CD37CE37D551070DC4
:1028F800050EF326000EF422AC0EF324F66E7E0EBF
:10290800F420F76E0900F5CFCFF00900F5CFD0F02D
:10291800CD51CF27CE51D023CB51CF27CC51D02367
:10292800CFC0F6FFD0C0F7FFF86A0E0EF76404D0E8
:10293800C7C0F5FF0C0006D0F6CFE1FFF7CFE2FFE6
:10294800C7C0E7FF6FD7D551070D050EF326000E58
:10295800F422AC0EF324F66E7E0EF420F76E090016
:10296800F5500900F510D8B43BD0000ED46F34D020
:10297800D551070D050EF326000EF422AC0EF324F4
:10298800F66E7E0EF420F76E0900F5CFCBF0090045
:10299800F5CFCCF0D151CB27000ECC23D451CB2787
:1029A800000ECC23CBC0F6FFCCC0F7FFF86AD45199
:1029B800C70FD96EDA6ADF50CD6F0E0EF76404D0F8
:1029C800CDC0F5FF0C0006D0F6CFE1FFF7CFE2FF50
:1029D800CDC0E7FF0001D42BD351D45DD8A0C8D710
:1029E800D551070DAC0EF324F66E7E0EF420F76E6B
:1029F80009000D0EF51804E10900250EF518D8A4F4
:102A080011D726380F0B030B116E26C0CBF00F0E13
:102A1800CB17CB51780DF3CF78F0F4CF79F0010EC6
:102A2800106E2644E846030B030B0F6EFBD6D551F8
:102A3800070DAC0EF324F66E7E0EF420F76E090037
:102A4800F5CFCBF00900F5CFCCF0CC51610AD8B462
:102A580004D0030AD8B409D076D7CB51600AD8B4C9
:102A680050D6E00AD8B4E0D66ED7CB51600AD8B4B5
:102A780048D6E00AD8B418D766D7D96F0001D9511B
:102A8800070D040EF326000EF422AC0EF324F66EA6
:102A98007E0EF420F76E0800F5CFD7F0C651D8B4F3
:102AA80005D0C605D703F3CFD6F040D1000ED66FB8
:102AB8003DD1C6C0CAF0FF0ECA27D951070D050E71
:102AC800F326000EF422AC0EF324F66E7E0EF420EC
:102AD800F76E0900F5CFCBF00900F5CFCCF0CBC0ED
:102AE800F6FFCCC0F7FFF86A0E0EF76403D00800B3
:102AF800F55005D0F6CFE1FFF7CFE2FFE750000130
:102B0800CD6FCA2B02D0D890CD33CA2FFCD7010E77
:102B18000001CD17CDC0CEF0CF6BD06BD16B0F0EAF
:102B2800D890CE37CF37D037D137E82EF9D7CEC0A7
:102B3800C6F0CFC0C7F0D0C0C8F0D1C0C9F01200ED
:102B4800F90ECA6FFF0ECB6FD951070D050EF3268C
:102B5800000EF422AC0EF324F66E7E0EF420F76E0F
:102B68000900F5CFCCF00900F5CFCDF0C651070D1F
:102B7800F350CC27F450CD23CA51CC27CB51CD23C9
:102B8800CCC0F6FFCDC0F7FFF86A0E0EF76403D08D
:102B98000800F55005D0F6CFE1FFF7CFE2FFE75088
:102BA8000001CE6FCE51C66FC76BC86BC96B1200E0
:102BB800F80ECA6FFF0ECB6FC651CC6FCD6BD89095
:102BC800CC37CD37D890CC37CD37D890CC37CD3718
:102BD800D951070D050EF326000EF422AC0EF3248E
:102BE800F66E7E0EF420F76E0900F5CFCEF00900E0
:102BF800F5CFCFF0CC51CE27CD51CF23CA51CE2718
:102C0800CB51CF23CEC0F6FFCFC0F7FFF86A0E0E28
:102C1800F76403D00800F55005D0F6CFE1FFF7CFF1
:102C2800E2FFE7500001D06FD051C66FC76BC86B89
:102C3800C96B1200C6C0CAF0CB6BCC6BCD6BCBC0D6
:102C4800CDF0CAC0CCF0CB6BCA6BA80ECA25C66F34
:102C5800610ECB21C76F000ECC21C86F000ECD21AD
:102C6800C96F1200000ED26F000ED36F000ED46F22
:102C7800000ED56FD951070D050EF326000EF4226C
:102C8800AC0EF324F66E7E0EF420F76E0900F550B4
:102C98000900F510D8B441D0000ED86F31D0D95101
:102CA800070D050EF326000EF422AC0EF324F66E83
:102CB8007E0EF420F76E0900F5CFCAF00900F5CFB3
:102CC800CBF0D651CA27000ECB23D851CA27000E05
:102CD800CB23CAC0F6FFCBC0F7FFF86AD851D20F92
:102CE800D96EDA6A0E0EF76403D00800F55005D0E5
:102CF800F6CFE1FFF7CFE2FFE750DF6E0001D82BF8
:102D0800D751D85DD8A0CBD7D2C0C6F0D3C0C7F0B2
:102D1800D4C0C8F0D5C0C9F01200000EC66F000EAE
:102D2800C76F000EC86F000EC96F1200D951070D8A
:102D3800AC0EF324F66E7E0EF420F76E0900F5CF84
:102D4800CAF00900F5CFCBF0CB51100AD8B407D0A0
:102D5800710AD8B409D0030AD8B40ED083D7CA519F
:102D6800160AD8B467D77ED7CA51600AD8B4A1D694
:102D7800E00AD8B4E5D676D7CA51600AD8B499D64D
:102D8800E00AD8B415D76ED79A51D8A402D0250E28
:102D980001D00D0EDE6F9D90DE51965DD8B0A4D0A7
:102DA8009A51D8A460D0550EDA6F550EDB6F550EC8
:102DB800DC6F000EDD6F200E96610FD096C0D4F048
:102DC800D43B0F0ED417010ED427D451DA0FD96E85
:102DD800DA6A96515A0FDF6E1DD0220E966104D022
:102DE80096513A0FDA6F16D0240E966113D0965189
:102DF800D46FD56BD890D437D5376C0ED427000E46
:102E0800D523BC0ED425F66E7C0ED521F76E0800AE
:102E1800F5CFDDF09651D46FD56BFF0ED66FFF0E50
:102E2800D76FDE51D86FD96BD651D827D751D92350
:102E3800D451D8190FE1D551D919D8A40BD096512E
:102E48005A0FDA6F96515B0FDB6F96515B0FDC6F91
:102E5800180EDD6FDBC069F0DCC06AF0DAC068F01C
:102E6800DDC06BF029D09651030D020EF326000E3B
:102E7800F422BC0EF324F66E7D0EF420F76E0800E3
:102E8800F5CF68F09651030DBC0EF324F66E7D0E57
:102E9800F420F76E0800F5CF69F09651030D010E86
:102EA800F326000EF422BC0EF324F66E7D0EF420F9
:102EB800F76E0800F5CF6AF09651D46FD56BFF0E08
:102EC800D66FFF0ED76FDE51D86FD96BD651D82782
:102ED800D751D923D451D81903E1D551D919D8A438
:102EE8009DD00A0E976F9AD0DE51D46FD56B400EE5
:102EF800D427000ED5239651D66FD76BD451D65D03
:102F0800D751800AD86FD551800AD859D8B032D055
:102F1800030EC66F9651ABEC21F00009D8B404D06B
:102F2800560E686F010E03D0550E686F000E256EA1
:102F3800DE51965DC66FC76BD8A0C707000EC96F74
:102F48000A0EC86FE5EC1FF0C651696FDE51965D39
:102F5800CE6FCF6BD8A0CF07000ED16F0A0ED06FFF
:102F680062EC20F0CE516A6F6951D8A457D0550E43
:102F7800696F54D0DE51D46FD56B800ED427000E04
:102F8800D5239651D66FD76BD451D65DD751800AC9
:102F9800D86FD551800AD859D8B03ED0030EC66F25
:102FA8009651ABEC21F00009D8B404D0570E686FE5
:102FB800020E03D0550E686F000E256E9651DEC0C6
:102FC800D4F0D56BD45F000ED55B800ED425C66FC8
:102FD800000ED521C76F000EC96F0A0EC86FE5EC49
:102FE8001FF0C651696F9651DEC0D4F0D56BD45F1F
:102FF800000ED55B800ED425CE6F000ED521CF6F85
:10300800000ED16F0A0ED06F62EC20F0CE516A6FBD
:103018006951D8B4ACD702D0DE05966F962B68C03C
:1030280024F09D801200000ECE6F000ECB6F000EB4
:10303800CC6F9DD0CE51070DAC0EF324F66E7E0EEC
:10304800F420F76EC6510900F51804E1C7510900CC
:10305800F518D8A48BD0CE51070D020EF326000E1A
:10306800F422AC0EF324F66E7E0EF420F76EC851EF
:103078000900F55CD8A078D0C951E00B200AD8A483
:1030880065D0CE51070D040EF326000EF422AC0EC7
:10309800F324F66E7E0EF420F76E0800F5CFCDF01F
:1030A800C9A320D0040ECD651DD0C851D8A411D015
:1030B800CE51070D020EF326000EF422AC0EF324B7
:1030C800F66E7E0EF420F76E0800F5500009D8A4BD
:1030D80009D0000EC66F000EC76F010EC86F060E2E
:1030E800C96F1200C9B304D0050ECD6101D0F1D764
:1030F800CE51070D030EF326000EF422AC0EF32476
:10310800F66E7E0EF420F76E0800F5500009D8A47C
:1031180009D0020EC66F000EC76F010EC86F060EEB
:10312800C96F1200C851D8A411D0CE51070D020E94
:10313800F326000EF422AC0EF324F66E7E0EF42075
:10314800F76E0800F5500009D8A4E3D7CA51D96E24
:10315800DA6ACEC0DFFF000EC66F000EC76F000E22
:10316800C86F000EC96F1200010ECB6FCE2BCE5167
:10317800070DAC0EF324F66E7E0EF420F76E0900F0
:10318800F52803E10900F528D8A454D7CC51D8A4D0
:10319800C0D7CB51D8B409D0110EC66F000EC76F77
:1031A800090EC86F060EC96F1200000EC66F000E1A
:1031B800C76F020EC86F060EC96F1200C86FF29E65
:1031C800000E0001926F000E0C6E000E836F000E51
:1031D8000D6E000E0A6E000E0B6E010E096E000ECB
:1031E800C96F000ECA6FC9510A0DB70EC66F020E1D
:1031F800C76FF350C627F450C723CA51C625D96EE6
:10320800000EC721DA6E000EDF6ECA2B090ECA65E2
:10321800EAD7C92B1D0EC965E4D7000EC96F000E89
:10322800CA6FC9510A0D8B0EC66F010EC76FF350D6
:10323800C627F450C723CA51C625D96E000EC72128
:10324800DA6E000EDF6ECA2B090ECA65EAD7C92BE3
:103258001D0EC965E4D793949386708A7098800E82
:103268006F6E6E50E00B800AD8A4FBD7020E0001E7
:10327800C819D8A402D0130E09D0C805D8A402D002
:10328800890E04D0C851D8A403D0830E0E01436F11
:10329800F40E0E01446F020E456F200E606E200E74
:1032A8000F01306F200E0E01E16FE00EE06F600E2F
:1032B800E56FA00EE46F000EF96FF00EF86F000EC8
:1032C800E96F800EE86F000EED6FC00EEC6F000E18
:1032D800F16F000EF06F000EF56FF00EF46F000E38
:1032E800FD6FF00EFC6F000E6F6E6ECFC6F0E00E35
:1032F8000001C617D8A4F9D79D39E8461F0BE00F7F
:103308000F01116F00019D39E846E00B0F01126FA4
:10331800010E156F90C016FF000E776E270E766EA1
:103328007868F28E12009851D8B4120082A825D07D
:103338009A51D8A40CD0F90EF66E7F0EF76E0800DD
:10334800F550D00F696FFB0EF66E7F0E0BD0DC0EBA
:10335800F66E7F0EF76E0800F550D00F696FDE0E1F
:10336800F66E7F0EF76E0800F550D00F6A6F550E97
:10337800686F000E256E0A0E976F9751D8B4C8EC87
:1033880016F09351BB19D8B478D0BB510F0B0F0A64
:10339800D8B471D0000EE16F030EE16501D06BD097
:1033A800E1C0DFF0010EE06FDF2B02D0D890E037EC
:1033B800DF2FFCD70001E051BB150009D8B440D07D
:1033C8009D90000E256E0A0E976FE1C0DFF0010E8A
:1033D800E06FDF2B02D0D890E037DF2FFCD7000159
:1033E800E0512B6E1ED0560E686F1E0E696F190EB7
:1033F80005D0570E686F0D0E696F170E6A6F1ED0D5
:10340800550E686F0F0E696F0F0E6A6F080E07D0A2
:10341800550E686F150E696F150E6A6F040E2B6EC8
:103428000DD0E151000AD8B4DED7010AD8B4E1D7EB
:10343800030AD8B4E5D7010AD8B4EAD79D8019D0D1
:10344800020EE1610FD0E1C0DFF0010EE06FDF2B6B
:1034580002D0D890E037DF2FFCD70001E051FF0AF7
:103468002B1607D0020EE119D8A402D02B9601D052
:103478002B94E12B91D7BBC093F0000E986F1200EC
:10348800C96F000E0001CA6F1750D8A41DD0010ED5
:10349800CA6F320E176E9B51D8A414D01F50D8A4EF
:1034A80011D09D90550E686F170E696F0C0E6A6FDC
:1034B8009D809A51D8A402D0010E01D0000E956FBC
:1034C80068C024F0000E876FCA51D8B41200C951E1
:1034D800D8B41200000ECB6FCB51080D000EF324A8
:1034E800D96E010EF420DA6EDF5093EC21F000095A
:1034F800D8B430D0CA51FF0AC76FCB51080D070E98
:10350800F324D96E010EF420DA6EC751DF16CB51C1
:10351800080D070EF324D96E010EF420DA6EDF5081
:10352800D8A454D0CBC0C7F0010EC86FC72B02D0A7
:10353800D890C837C72FFCD70001C851FF0A2B16EF
:10354800CB51080D050EF324D96E010EF420DA6E66
:10355800000E3BD0CB51080D020EF324D96E010E9C
:10356800F420DA6EDF50CA150009D8B42FD0CB5139
:10357800080D000EF324D96E010EF420DA6E0E0E3B
:10358800DE18D8A4CFD7CB51080D010EF324D96E7D
:10359800010EF420DA6E100EDE18D8A4C3D7CBC003
:1035A800C7F0010EC86FC72B02D0D890C837C72FF5
:1035B800FCD70001C8512B12CB51080D050EF3247E
:1035C800D96E010EF420DA6E010EDF6ECB2B070EDA
:1035D800CB6582D71200D16F22A212008DD022A60D
:1035E80096D022969B51D8A40ED01F50D8A48FD025
:1035F800000E1F6E010E9B6F000E9C6F000E256E55
:10360800000E956F84D01F50D8A481D0000E1F6E75
:10361800000E9B6F000E9C6F1EC095F078D09B51DA
:10362800D8B475D0030E996F9B05D8B404D0040E96
:103638009B19D8A419D0320E1D6E0F0E9D6507D0A8
:103648007E0E9D6104D09D2B7D0E9D6502D0100ECF
:103658009D6F9DC094F0000EC96F000EC86F9DC08D
:10366800CAF05BEC21F053D0020E9B19D8A44FD0BE
:10367800000E1D6E9DC094F0000EC96F000EC86F3D
:103688009DC0CAF05BEC21F09DC0CCF0110E9BEC04
:103698001FF03DD09B51D8B43AD0030E996F9B05CB
:1036A800D8B404D0040E9B19D8A410D0320E1D6EC5
:1036B8000F0E9D65CCD77E0E9D61C9D7100E9D1942
:1036C800D8A402D07D0EC4D79D07C3D7020E9B197C
:1036D800D8A41DD0000E1D6E9DC094F0000EC96FB9
:1036E800000EC86F9DC0CAF05BEC21F09DC0CCF005
:1036F800110E9BEC1FF00BD00001D151010AD8B478
:103708008ED7030AD8B4C6D7010AD8B468D722928C
:103718001200550E686F250E696F250E6A6F000E30
:103728006B6F040E8C6F000E976F000E1D6E320EBD
:10373800176E000E7F6F000E7E6F000E886F000EF2
:103748009B6F000E9C6F000EB86F9A51D8A402D0E0
:10375800010E01D0000E956F550E246E010E2A6ED3
:10376800A10EB36F010EB46F000EB56F000EB66FE9
:10377800020EAE6F000EAD6F030EB06F000EAF6F8E
:10378800000E1C6E000E1B6E000E266E000EC66F1D
:10379800C651070D450EF324D96E010EF420DA6EDA
:1037A800000EDF6EC651080D050EF324D96E010E0A
:1037B800F420DA6E000EDF6EC651070D400EF324BA
:1037C800D96E010EF420DA6E000EDF6EC651080DB8
:1037D800000EF324D96E010EF420DA6E000EDF6EAF
:1037E800C651080D070EF324D96E010EF420DA6EC7
:1037F800000EDF6EC62B070EC665CAD7000EC66F51
:10380800C651A60FD96EDA6A000EDF6EC6519F0F39
:10381800D96EDA6A000EDF6EC62B060EC665F0D7C3
:10382800000EB96F000E296E000E2B6E82500F0B22
:10383800BB6FBBC001F0BBC002F0BBC003F0000E01
:103848008D6F12009D519E19D8A404D09B519C19CC
:10385800D8B46BD09B05D8B404D0040E9B19D8A457
:1038680050D0550E686F000E6B6F0F0E9D6544D0DB
:103878007E0E9D6141D0000EC96F0A0EC86FF10E11
:103888009D25C66FC76BFF0EC723E5EC1FF0C6C0AA
:10389800CEF0C7C0CFF0000ED16F0A0ED06F62EC29
:1038A80020F0CE51696FF10E9D25CE6FCF6BFF0EC4
:1038B800CF23000ED16F0A0ED06F62EC20F0CE51EC
:1038C8006A6FF10ED46FFF0ED56F9D51D66FD76B0F
:1038D800D451D627D551D723D7BF1DD0D75104E10E
:1038E800640ED65DD8A017D09A51D8A402D0560E2F
:1038F80001D0010E686F0FD0250E696F250E6A6F13
:103908000AD06CC068F06D51D00F696F6E51D00F3E
:103918006A6F000E6B6F9DC09EF09BC09CF068C0E4
:1039280073F069C074F06AC075F09951D8A4120098
:10393800F29A030E996F550E6819D8A408D0550E3F
:103948006919D8A404D0550E6A19D8B407D0550EF1
:10395800686F550E696F550E6A6F06D073C068F0B0
:1039680074C069F075C06AF0000E6B6FF28A1200BD
:1039780000018751D8B412008651D8A412001D0E38
:103988000A18D8A403D0000E0A6E01D00A2AF29EA3
:103998000950D8B474D00B500A0D8C0EF324D96E8C
:1039A800010EF420DA6EDF50C66FD890C633D89077
:1039B800C633D890C6330B500A0D8B0EF324D96E3C
:1039C800010EF420DA6EDF50F00BC6250F01216FCF
:1039D8000B500A0D8C0EF324D96E010EF420DA6E0A
:1039E800DF500001C66F050EC76FD890C637C72FC6
:1039F800FCD7C6510F01226F0B500A0D8B0EF32412
:103A0800D96E010EF420DA6EDF500F0B0001CA6F79
:103A1800CAC025FF260EC86F0F0EC96F000ECB6FE8
:103A28001DD00B500A0D8B0EC66F010EC76F020E0C
:103A3800C627000EC723F350C627F450C723CB511F
:103A4800C625D96E000EC721DA6ECB51C825E16EA6
:103A5800000EC921E26EDFCFE7FFCB2BCA51CB5D49
:103A6800D8A0DFD70F012087000E096E1D0E0B1896
:103A7800D8A403D0000E0B6E03D00B2A01D00D2A58
:103A8800F28E12000001D36F1E0E0D18D8B4FCD7A9
:103A98000A500A0D8B0EF324D96E010EF420DA6E4B
:103AA800B80EDF6E0A500A0D8C0EF324D96E010E83
:103AB800F420DA6E9DC0DFFF0A500A0D8D0EF32444
:103AC800D96E010EF420DA6ED3C0DFFF0A500A0D5A
:103AD8008E0EF324D96E010EF420DA6ECCC0DFFF0F
:103AE8000A500A0D8F0EF324D96E010EF420DA6EF7
:103AF800CDC0DFFF0A500A0D900EF324D96E010ED7
:103B0800F420DA6ECEC0DFFF0A500A0D910EF324BE
:103B1800D96E010EF420DA6ECFC0DFFF0A500A0D0D
:103B2800920EF324D96E010EF420DA6ED0C0DFFFB6
:103B38000A500A0D930EF324D96E010EF420DA6EA2
:103B4800D1C0DFFF0A500A0D940EF324D96E010E7E
:103B5800F420DA6ED2C0DFFFBCEC1CF012001E0E9F
:103B68000D18D8B4FCD70A500A0D8B0EF324D96E61
:103B7800010EF420DA6EB80EDF6E0A500A0D8C0EB4
:103B8800F324D96E010EF420DA6E9DC0DFFF0A50CF
:103B98000A0D8D0EF324D96E010EF420DA6E800E14
:103BA800DF6E0A500A0D8E0EF324D96E010EF42032
:103BB800DA6E7CC0DFFF0A500A0D8F0EF324D96E2F
:103BC800010EF420DA6E7DC0DFFF0A500A0D900E58
:103BD800F324D96E010EF420DA6E8FC0DFFF0A508D
:103BE8000A0D910EF324D96E010EF420DA6ECCC0C2
:103BF800DFFF0A500A0D920EF324D96E010EF4204D
:103C0800DA6ECDC0DFFF0A500A0D930EF324D96E89
:103C1800010EF420DA6ECEC0DFFF0A500A0D940EB2
:103C2800F324D96E010EF420DA6ECFC0DFFFBCECAE
:103C38001CF01200D16F1E0E0D18D8B4FCD70A5014
:103C48000A0D8B0EF324D96E010EF420DA6EB80E2D
:103C5800DF6E0A500A0D8C0EF324D96E010EF42083
:103C6800DA6E9DC0DFFF0A500A0D8D0EF324D96E5F
:103C7800010EF420DA6ED1C0DFFF000E0001D26F12
:103C88001DD0CDC0D9FFCEC0DAFF0A500A0D8B0E69
:103C9800CF6F010ED06F030ECF27000ED023F35045
:103CA800CF27F450D023D251CF25E16E000ED0217A
:103CB800E26EDFCFE7FFCD4BCE2BD22BCC51D25DBE
:103CC800D8A0DFD7CCC0D2F0060ED26501D018D06C
:103CD8000A500A0D8B0ECF6F010ED06F030ECF273F
:103CE800000ED023F350CF27F450D023D251CF2544
:103CF800D96E000ED021DA6E000EDF6ED22BE4D71B
:103D0800BCEC1CF01200000ECA6F8250130BCD6F72
:103D1800CDC0C6F0030EC617CD41E8423F0BC61111
:103D2800CC6FCC51D8A409D0AA0E236E2298229623
:103D3800229C229A000E216E1200CCC0CBF0000EFD
:103D4800CD6FCBB1CA2BD890CB33CD2B020ECD651E
:103D5800F8D7030ECA6502D022921200000ECD6F6A
:103D6800AA0ECC19D8B41200E50ECD25F66EF76A66
:103D78007F0EF7220800F550CC19D8B404D0CD2B0B
:103D8800050ECD65EDD72050C66FC76BCD51C86FF6
:103D9800C96B010EC827000EC923C651C81904E112
:103DA800C751C919D8B403D0CD29206E12002350A9
:103DB8002018D8B407D020C023F01E0E216E22820E
:103DC800229C229A030E2018D8A4120022A61200C0
:103DD800229422821200000E1B6E000E0001C86F92
:103DE80036D0C8C0C6F0010EC76FC62B02D0D89017
:103DF800C737C62FFCD70001C7511B1242D0C8C015
:103E0800C6F0010EC76FC62B02D0D890C737C62F91
:103E1800FCD70001C751FF0A1B1633D0C851080D43
:103E2800010EF324D96E010EF420DA6EDF50010A78
:103E3800D8B4D7D7080AD8B4D4D7030AD8B4D1D7B6
:103E4800900AD8B4CED73B0AD8B4CBD7D8D7C85164
:103E5800080D000EF324D96E010EF420DA6EDF503F
:103E6800020AD8B4BED7070AD8B4BBD70B0AD8B44D
:103E7800D5D7810AD8B4B5D71F0AD8B4B2D7010AA2
:103E8800E3D7C82B070EC865E2D712001E0E0D181F
:103E9800D8B4FCD70A500A0D8B0EF324D96E010E44
:103EA800F420DA6E180EDF6E0A500A0D8C0EF32419
:103EB800D96E010EF420DA6E9DC0DFFF0A500A0D9C
:103EC8008D0EF324D96E010EF420DA6E7AC0DFFF6E
:103ED8000A500A0D8E0EF324D96E010EF420DA6E04
:103EE8007BC0DFFF0A500A0D8F0EF324D96E010E36
:103EF800F420DA6EBAC0DFFF050ECE6F0A500A0D45
:103F08008B0ECC6F010ECD6FF350CC27F450CD2320
:103F1800CE51CC25D96E000ECD21DA6E000EDF6EA3
:103F2800CE2B090ECE65EAD7BCEC1CF012000001BE
:103F3800CF6F1E0E0D18D8B4FCD70A500A0D8B0E81
:103F4800F324D96E010EF420DA6EF80EDF6E0A50F3
:103F58000A0D8C0EF324D96E010EF420DA6E640E6D
:103F6800DF6E0A500A0D8D0EF324D96E010EF4206F
:103F7800DA6ECFC0DFFF0A500A0D8E0EF324D96E19
:103F8800010EF420DA6ECCC0DFFF040E0001D06F02
:103F98000A500A0D8B0ECD6F010ECE6FF350CD2750
:103FA800F450CE23D051CD25D96E000ECE21DA6E35
:103FB800000EDF6ED02B090ED065EAD7BCEC1CF0E2
:103FC8001200000ECB6FC9AF06D0C86DC91FD8B09C
:103FD800C92B010ECB6FC7AF06D0C66DC71FD8B0AF
:103FE800C72B010ECB1B000ECD6F000ECC6FC85136
:103FF800C911D8B41CD0010ECA6F04D0D890C837E4
:10400800C937CA2BC9AFFAD7D890CC37CD37C851E2
:10401800C65DC951C759D8A005D0C851C65FC95196
:10402800C75BCC81D890C933C833CA2FEDD7CB51E1
:10403800D8B404D0CC6DCD1FD8B0CD2BCCC0C6F031
:10404800CDC0C7F012001E0E0D18D8B4FCD70A5008
:104058000A0D8B0EF324D96E010EF420DA6E970E3A
:10406800DF6E0A500A0D8C0EF324D96E010EF4206F
:10407800DA6E9DC0DFFF000ECF6FCC51D96EDA6AC1
:104088000A500A0D8B0ECD6F010ECE6F020ECD2792
:10409800000ECE23F350CD27F450CE23CF51CD259B
:1040A800E16E000ECE21E26EDFCFE7FFCC2BCF2BE7
:1040B800060ECF65E2D7BCEC1CF01200000ED36FE1
:1040C800CFAF06D0CE6DCF1FD8B0CF2B010ED36F98
:1040D800D1AF04D0D06DD11FD8B0D12BD051D111D0
:1040E800D8B418D0010ED26F04D0D890D037D137B9
:1040F800D22BD1AFFAD7D051CE5DD151CF59D8A05C
:1041080004D0D051CE5FD151CF5BD890D133D033CA
:10411800D22FF1D7D351D8B404D0CE6DCF1FD8B099
:10412800CF2BCEC0CEF0CFC0CFF01200000ECD6F97
:10413800000ECA6F000ECB6F000ECC6F000ECD6F55
:10414800CD51C625D96E000EC721DA6EDF50D8A42E
:10415800CA2BCD51C825D96E000EC921DA6EDF50A1
:10416800D8A4CB2BCD2B090ECD65EAD7070ECA658F
:1041780001D0CC81070ECB6501D0CC83CC51120085
:10418800000ED26F000ED16FCE51CF11D8B41CD013
:10419800010ED06F04D0D890CE37CF37D02BCFAF09
:1041A800FAD7D890D137D237CE51CC5DCF51CD592F
:1041B800D8A005D0CE51CC5FCF51CD5BD181D8905E
:1041C800CF33CE33D02FEDD7D1C0CCF0D2C0CDF085
:1041D80012001CD0000EC86F000EC96F000ECA6F07
:1041E800000ECB6FCB51CA11C9110FE10AD0010ED5
:1041F800C827000EC923CA23CB23CB51CA11C91122
:1042080004E1A50EC85DD8A0F2D704000001C607D6
:10421800D8A0C707C629DEE1C729D8B41200DAD763
:104228003C6E000E3D6E3B6A3CAE01D03B2A010E4F
:104238003B163B323B328B503B187F0B3B188B6E47
:10424800D8903C368B8C00F000F000F000F000F0C5
:1042580000F000F000F000F000F000F08B9C3D2A28
:10426800070E3D64E0D7120001EE8BF012EE58F015
:10427800EE6AE550E150FCE1E250FAE101EE00F0AF
:10428800780EEE6AE806FDE100EE60F05C0EEE6A7C
:10429800E806FDE100EE01F02B0EEE6AE806FDE10E
:1042A8004D904D92000EF86E000161EF0FF0C9C0FD
:1042B80075FFC8C074FFCAC073FF7F9E7F9C7F8450
:1042C800F29EF29C550E7E6EAA0E7E6E7F82F28E54
:1042D800F28C0400B7ACFED7B79C7F84C8C0C6F088
:1042E800C9C0C7F022EC22F01200F70E926E898640
:1042F8008168C80E936E1F0E946E9A51D8A402D08E
:104308007F0E01D0800E956E000E966E000E8A6E9E
:10431800000E8B6E000E8C6E000E8D6E1200C66F36
:1043280004D0010E1200000E12000001C651020A4C
:10433800D8B4F7D7070AD8B4F4D78A0AD8B4F1D7CB
:104348001F0AD8B4EED7010AD8B4EBD7ECD70001CE
:10435800C76F080E0001C86F000EC96FD890C73527
:10436800C935C96FD890C737C651C95DD8A002D022
:10437800C651C95FC82FF2D7C95112009E909F90AD
:104388009D809A51D8A405D0E00E156EC00E146E0B
:1043980003D09A05D8B4F8D715C0CFFF14C0CEFF04
:1043A800030ECD6E12003C6E080E3D6E000E3E6E82
:1043B800D8903C343E343E6ED8903C363B503E5C00
:1043C800D8A002D03B503E5E3D2EF2D73E501200A0
:1043D800C651C803F3CFCAF0F4CFCBF0C651C90316
:1043E800F350CB27C751C803F350CB27CAC0C6F038
:1043F800CBC0C7F012009D39E8461F0BE00F0F0134
:10440800116F00019D39E846E00B0F01126F90C053
:1044180016FF10871200F28AF294F1940C0ED76EF0
:10442800000ED66E840ED56E12009E929F929D82CB
:10443800CB68000ECC6E160ECA6E1200C7C075FF90
:0E444800C6C074FF7F9E7F9C7F807350120061
:1079EA0000EEF1F1F1F1F1EEE8ECEAE8E8E8E8EEB0
:1079FA00F1F0E8E4E2FFEEF1F0ECF0F1EEE8E4EAAF
:107A0A00E9FFE8E8FFE1EFF0F0F1EEEEF1E1EFF186
:107A1A00F1EEFFF0E8E4E2E2E2EEF1F1EEF1F1EE8E
:107A2A00EEF1F1FEF0F1EEEEF1F1FFF1F1F1EFF12D
:107A3A00F1EFF1F1EFEEF1E1E1E1F1EEEFF1F1F168
:107A4A00F1F1EFFFE1E1EFE1E1FFFFE1E1EFE1E178
:107A5A00E1EEF1E1FDF1F1EEF1F1F1FFF1F1F1E425
:107A6A00E4E4E4E4E4E4FFE8E8E8E8E9E6F1E9E587
:107A7A00E3E5E9F1E1E1E1E1E1E1FFF1FBF5F1F152
:107A8A00F1F1F1F1F3F5F9F1F1EEF1F1F1F1F1EED4
:107A9A00EFF1F1EFE1E1E1EEF1F1F1F5F9EEEFF1FC
:107AAA00F1EFE5E9F1EEF1E1EEF0F1EEFFE4E4E405
:107ABA00E4E4E4F1F1F1F1F1F1EEF1F1F1F1F1EADD
:107ACA00E4F1F1F1F1F1F5EAF1F1EAE4EAF1F1F1C7
:107ADA00F1EAE4E4E4E4FFF0E8E4E2E1FFE0E4E40C
:107AEA00FFE4E4E0E0E0E0FFE0E0E0FDF5F5F5F5D5
:107AFA00F5FDF2F2F2F2F2F2F2FDF1F1FDE5E5FD49
:107B0A00FDF1F1FDF1F1FDF5F5F5FDF1F1F1FDE51F
:107B1A00E5FDF1F1FDFDE5E5FDF5F5FDFDF1F1F11F
:107B2A00F1F1F1FDF5F5FDF5F5FDFDF5F5FDF1F1E7
:107B3A00FDE0E0E0E0E0E0E0F7F4F4F7F1F1F7E08F
:107B4A00E0E0E0E0E0E0E0E0E0E0E0E0E0E0E0E02B
:107B5A00E0E0E0E0E0E0E0E0E0E0E0E0E0E0E0E01B
:107B6A00E0E0E0E0E0E0E0E0E0E0E0E0E0E0E0E00B
:107B7A00E0E0E0E0E0E0E0E0E0E0E0E0E0E0F7F4D0
:107B8A00F4F7F4F4F7E0E0E0E0E0E0E0E0E0E0E081
:107B9A00E0E0E0E0E0E0E0E0E0E0E0E0E0E0E0E0DB
:107BAA00E0E0E0E0E0E0E0E0E0E0E0E0E0E0E0E0CB
:107BBA00E0E0E0E0E0E0E0E0E0E0E0E0E0E0E0E0BB
:107BCA00E0E0E0E0F5F5F5F7F4F4F4E0E0E0E0E019
:107BDA00E0E0E0E0E0E0E0E0E0E0E0E0E0E0E0E09B
:107BEA00E0E0E0E0E0E0E0E0E0E0E0E0E0E0E0E08B
:107BFA00E0E0E0E0E0E0E0E0E0E0E0E0E0E0E0E07B
:107C0A00E0E0E0E0E0E0E0E0E0E0F7F1F1F7F4F4F2
:107C1A00F7E0E0E0E0E0E0E0E0E0E0E0E0E0E0E043
:107C2A00E0E0E0E0E0E0E0E0E0E0E0E0E0E0E0E04A
:107C3A00E0E0E0E0E0E0E0E0E0E0E0E4EEF5E4E40B
:107C4A00E4E4E4E4E4E4F5EEE4E0E0E0E0E0E0E0EB
:107C5A00E0E0E0E0E0E0E0FFE0E0E0E0E0E0E0FFDC
:107C6A00E0E0E0E0E0E0E0FFE0E0E0E0E0E0E0FFCC
:107C7A00E0E0E0E0E0E0E0FFE0E0E0E0E0E0E0FFBC
:107C8A00E0E0E0E0E0E0E0FFF0F0F0F0F0F0F0E853
:107C9A00E8E8E8E8E8E8E4E4E4E4E4E4E4E2E2E288
:107CAA00E2E2E2E2E1E1E1E1E1E1E1FFFFFFFFFF20
:107CBA00FFFF55554001D4D4D495C181959595D5EA
:107CCA005401D5D5D595D5C1DC1D15545C1D95D467
:107CDA0095C09555C1C11C1C1C18280A0154634142
:107CEA0043435555D5C0D58135C216161C08415592
:107CFA004155495D22222208343488888080594DB2
:107D0A004141D14CD145C9419945994D5141D94D2E
:107D1A00D94500004CD1000000000000000000001E
:107D2A0000000000000000004C9900000000000064
:107D3A000000000000000000000000004989000067
:107D4A000000000000000000000000000000000029
:107D5A0045990000000000000000000000006000DB
:107D6A00C0001000080004001000400000010004D8
:107D7A00001000400100008080000200080020007E
:107D8A000002000800200400100040000001000466
:107D9A00001000400100008080000200080020005E
:107DAA000002000800206000C00010000800E00087
:107DBA00FFFF5A5A5A5B5B5B5C5C5C5D5D5D5E5EB5
:107DCA005E5F5F5F6060606161616262626363639C
:107DDA0064646465656566666667676745424942C5
:107DEA003C453C3C423C3C3C3C3C3C55313F55319B
:107DFA003F55313F55313F45473F45473F46313F64
:107E0A0046313F46323F46323F46333F46333F468E
:107E1A00343F46343F46353F46353F46363F463681
:107E2A003F46363E46363E46363E46363E46364065
:107E3A004636404636404636404635404635404648
:107E4A003440463440463340463340463240463258
:107E5A00404631404631404547404547405531400C
:107E6A005531403D3D3E3D3D3E3C3C463C46454607
:107E7A00455545554555455245525752574557451B
:107E8A00484548524852465246414641484148525E
:107E9A0048525452543C543C3C3C3C3C3C3C3C3C98
:107EAA003C3C0010000004B3000110000001BA00BD
:107EBA000810000006F27F0910000005EC7F0A1086
:107ECA00000005F87F1610080004000018100401CD
:107EDA000400000060030002AD0001600001012AF5
:107EEA0000206108010400004061080104000060EC
:107EFA0061080104B9008061080104460120620892
:107F0A0001040000406208010400006062080104E4
:107F1A0029008062080104060110600000070000C1
:107F2A0011600001070000006108010700000062FB
:107F3A000801070000FD2F000001BB00FE2F000111
:107F4A00012B00CA24000101B800EE240001012718
:107F5A00000D250001012600FFFF0000000000308F
:107F6A00313233343536373839414243444546474E
:107F7A0048494A4B4C4D4E4F5051525354555657FF
:107F8A0058595A2B2D6162636465666768696A6B22
:107F9A006C6D6E6F707172737475767778797A21F9
:107FAA002324252628292A272C3A3B3C3E3D405BA0
:107FBA005D7B7D7C00B50000000000000000000031
:107FCA00000000000056312E310000472D373432B0
:107FDA000056312E344100FFFFFFFF010204AA417F
:107FEA00E7FF56312E330000472D37343100563122
:057FFA002E35410000DE
:020000040020DA
:08000000FFFFFFFFFFFFFFFF00
:020000040030CA
:0E00000015026A2AFF8991FF00800FE00F4071
:00000001FF
